:020000020000FC
:107000000C9422390F9306E10A95F1F70F91089538
:107010000F9304E102C00F9304E60F9304E60F936D
:1070200006E10A95F1F70F910A95C9F70F910A95B4
:10703000A1F70F91089504B10F7E0E6204B900E527
:107040000CBD2A9A29980895299829980E940838F1
:1070500000E05ED00D7F102F00E09ED00E94083827
:1070600010E407E099D01FE301E096D011E002E0C0
:1070700093D013E003E090D011E005E08DD011E053
:1070800006E08AD00AE0F5E7EEE695D000E1F5E704
:10709000EEE691D011E101E17FD01FE204E07CD067
:1070A00010E707E079D011E707E076D00E940838B2
:1070B00002EE68D001EE66D00E94083829981FE1E0
:1070C00000E06AD00E940B3808950E94023800E068
:1070D0001FD00360102F00E05FD010E707E05CD006
:1070E00002EE50D001EE4ED0299A0E940838089541
:1070F0002998089507E00CD00074E1F310E407E04C
:107100004BD008950EBD0DB507FFFDCF0EB5089508
:107110000E9402382A980E940238F4DF0E94023846
:10712000F1DF0E9402382A9A08950E9402382A98B4
:107130000E940238E7DF0E940238E4DF0193E2DFB9
:107140000193E0DF0193DEDF0193DCDF01930E9416
:1071500002382A9A08950E9402382A980E9402381A
:107160000F9301E6CFDF0E9402380F910F930E9428
:107170000238C8DF01930F910A95C1F70E940238C7
:107180002A9A08950E9402382A980E940238BADF8B
:107190000E9402382A9A08950E9402382A980E9472
:1071A00002380062AFDF0E940238012FABDF0E947D
:1071B00002382A9A08950E9402382A980E940238BA
:1071C0000062A0DF0E9402380591002311F09ADFCF
:1071D000FBCF0E9402382A9A08950E9402382A980A
:1071E0000E9402380F9300EA8DDF0E9402380F914F
:1071F0000F930E940238019185DF0F910A95C1F724
:107200000E9402382A9A0E940238299A0E94023863
:10721000299807E07DDF0073E1F308950E940238AA
:107220002A980E9402380F9300EA6CDF0E9402380D
:107230000F910F930E940238059164DF0F910A9518
:10724000C1F7DECFF89408E00EBF0FEF0DBF209816
:10725000289A0000000018998DC000000E941B3879
:107260000E9424380E940238C1E0D1E050E0299801
:107270001FE100E091DF29DF3DDF3ADF0E94573A4E
:107280000D914A95053709F425C0013309F411C061
:10729000013409F43AC0013509F46BC0053509F42D
:1072A0006DC0043609F4B5C0043709F46DC01ED1B1
:1072B000DECF29981EE100E06FDF0E94083801EE62
:1072C00061DF11E707E068DF01E1E4E6F5E70E942E
:1072D0000E39CDCF04E109935395FF27EE2701E244
:1072E00007BF049109935395EE5F01E207BF049134
:1072F00009935395EE5F01E207BF049109935395FB
:1073000000E109935395DBD0B2CF04E10993539583
:107310000D914A95003821F40FE00993539524C04C
:10732000013821F404E0099353951EC0023821F47A
:107330000CE00993539518C0073C39F400E8099311
:10734000539500E0099353950FC0023521F404E0F2
:107350000993539509C0083921F403E00993539523
:1073600003C000E00993539500E109935395A7D01A
:107370007ECFBCD0002704B90C9400004D904A95F4
:107380005D904A95B3D073CF9D914A958D914A9562
:107390006D914A95C1E0D1E050E004E10993539525
:1073A000E42DF52D992311F4882371F15031D9F092
:1073B000992311F48823B9F0653441F005910993BC
:1073C000539501E0801B0027900BF0CFF999FECF79
:1073D000F2BDE1BDF89A00B50F9301E0E00F002780
:1073E000F01F0F91ECCF4E2E5F2E69D029981FE130
:1073F00000E0D2DE6ADE7EDE7BDE59D0C1E0D1E085
:1074000050E0E42DF52DCECF00E10993539557D0F0
:107410002ECF9D914A958D914A956D914A95C2E2E4
:10742000D1E0992311F4882399F14423D9F09923C9
:1074300011F48823B9F00D914A95653419F0099338
:107440008A95F3CFF999FECF52BC41BC00BDFA9AA0
:10745000F99A01E0400E0027501E01E0801B002732
:10746000900BE3CF992311F48823D9F26C2E7D2E53
:10747000C1E0D1E050E023D029981FE100E08CDE8C
:1074800024DE38DE35DE0E94573AC62DD72DC9CF0F
:10749000653459F000E8C2E2D1E0E42DF52D0E94F8
:1074A000863A00E8400E00E0501E20D0E0CE01E118
:1074B000E1E1F1E050DEA1E1B1E04D910895E0E0BD
:1074C000F1E05193E0E0F1E029981EE100E064DE94
:1074D0000E94083801EE56DE11E707E05DDE01E1AB
:1074E0000E94ED38C1E0D1E050E0089529981EE1F6
:1074F00000E052DE0E94083801EE44DE11E707E0AA
:107500004BDE01E1E0E6F5E70C940E3903E00E9462
:10751000A83A01E10E94A83A00E4F02E09901990DF
:1075200001E00E94A83A02E0E00F0027F01FFA9461
:10753000A9F7E058F04005E00E94A83A01E10E9456
:10754000A83A17B716FF01E10E94A83A08950895D6
:1075500017B710FDFDCFF999FECF07BFE895089545
:107560000214100009146E52462049535010424F25
:047570004F544C0028
:00000001FF
